S0240000496E746572666163696E675F4D6F64756C65735F414D49545F4C31302E73726563C8
S11300000C942A000C9447000C9447000C9447006D
S11300100C9447000C9447000C9447000C94470040
S11300200C9447000C9447000C9447000C94470030
S11300300C9447000C9447000C9447000C94470020
S11300400C9447000C9447000C9447000C94470010
S11300500C94470011241FBECFE5D8E0DEBFCDBF0E
S113006010E0A0E6B0E0E8E0F2E002C005900D92F6
S1130070A036B107D9F720E0A0E6B0E001C01D9298
S1130080A036B207E1F70E94CC000C9402010C9454
S11300900000442319F04130C9F10895813091F0F2
S11300A028F08230D9F0833029F108952AB381E011
S11300B090E002C0880F991F6A95E2F78095822329
S11300C08ABB089527B381E090E002C0880F991F8E
S11300D06A95E2F78095822387BB089524B381E073
S11300E090E002C0880F991F6A95E2F780958223F9
S11300F084BB089521B381E090E002C0880F991F6A
S11301006A95E2F78095822381BB0895813089F056
S113011028F08230C9F0833011F108952AB381E0C8
S113012090E002C0880F991F6A95E2F7822B8ABB80
S1130130089527B381E090E002C0880F991F6A9563
S1130140E2F7822B87BB089524B381E090E002C0DC
S1130150880F991F6A95E2F7822B84BB089521B317
S113016081E090E002C0880F991F6A95E2F7822B24
S113017081BB089541E062E082E00E944900089555
S113018041E067E082E00E944900089541E063E0B5
S113019083E00E94490008950E94F6000E94BA007C
S11301A00E94C0000E94C6000E94E70081E00E94F5
S11301B0F2000E94FE000E94EE002FEF84E39CE018
S11301C0215080409040E1F700C00000F2CFBD9A7A
S11301D0BE98BF9ABC9A83E58DB908958FB9779B71
S11301E0FECF0895811101C0C498089588E18AB9A9
S11301F086E880BD87E689B910BC08955F9BFECF71
S10B02008CB10895F894FFCFBE
S9030000FC
